:020000040000FA
:100000000200D5EE547FFE5390FBE4FCECC3941049
:1000100074809480501CEE30E705439008800353B1
:1000200090F75390EF439010EF25E0FFEE33FE0C76
:1000300080DAE4FCECC39408748094805019E430B6
:10004000E70543900880035390F75390EF439010D7
:10005000ED25E0FD0C80DD43900422E4FDFFFE1160
:10006000037D807F017E001103E4FBEBC394807469
:100070008094805034EBFD7C00C3747E9DFFE49C33
:10008000FE74002FF58274003EF583E0FF7E00C30E
:10009000747F9DFDE49CFC74002DF58274003CF59A
:1000A00083E0FD11030B0B80C22243902043900498
:1000B0004390104390082211C611AA115B80FE756F
:1000C000A53C75E2402253A87F11BF01D153D9BF8F
:1000D0002275B283221200CD787FE4F6D8FD7581B7
:1000E0000702011F0200B7E493A3F8E493A34003BF
:1000F000F68001F208DFF48029E493A3F854072482
:100100000CC8C333C4540F4420C8834004F4568041
:100110000146F6DFE4800B010204081020408090C5
:100120000164E47E019360BCA3FF543F30E50954B1
:100130001FFEE493A360010ECF54C025E060A840E9
:10014000B8E493A3FAE493A3F8E493A3C8C582C8E0
:10015000CAC583CAF0A3C8C582C8CAC583CADFE9B5
:10016000DEE780BE6080000010401100124014AA3B
:1001700015AA162A1705180019031A001B001C00DF
:100180001D001E481F01201421002200230024808E
:100190002513261927CD28832A002B102C442D1136
:1001A0002E122F943032310232043323348635FF3D
:1001B00036303700380039073A553D003E0C3F8055
:1001C000405041284200430044004500460047C0DB
:1001D00052F46C006E006F0070E3710172327300B4
:1001E00079007A007B007C004400800175D72000F4
:00000001FF
